{
  "contractName": "StudentListStorage",
  "abi": [
    {
      "inputs": [
        {
          "internalType": "uint256",
          "name": "",
          "type": "uint256"
        }
      ],
      "name": "StudentList",
      "outputs": [
        {
          "internalType": "uint256",
          "name": "id",
          "type": "uint256"
        },
        {
          "internalType": "string",
          "name": "name",
          "type": "string"
        },
        {
          "internalType": "uint256",
          "name": "age",
          "type": "uint256"
        },
        {
          "internalType": "address",
          "name": "account",
          "type": "address"
        }
      ],
      "stateMutability": "view",
      "type": "function",
      "constant": true
    },
    {
      "inputs": [
        {
          "internalType": "string",
          "name": "_name",
          "type": "string"
        },
        {
          "internalType": "uint256",
          "name": "_age",
          "type": "uint256"
        }
      ],
      "name": "addList",
      "outputs": [
        {
          "internalType": "uint256",
          "name": "",
          "type": "uint256"
        }
      ],
      "stateMutability": "nonpayable",
      "type": "function"
    },
    {
      "inputs": [],
      "name": "getList",
      "outputs": [
        {
          "components": [
            {
              "internalType": "uint256",
              "name": "id",
              "type": "uint256"
            },
            {
              "internalType": "string",
              "name": "name",
              "type": "string"
            },
            {
              "internalType": "uint256",
              "name": "age",
              "type": "uint256"
            },
            {
              "internalType": "address",
              "name": "account",
              "type": "address"
            }
          ],
          "internalType": "struct StudentListStorage.Student[]",
          "name": "",
          "type": "tuple[]"
        }
      ],
      "stateMutability": "view",
      "type": "function",
      "constant": true
    }
  ],
  "bytecode": "0x608060405234801561000f575f80fd5b50610c218061001d5f395ff3fe608060405234801561000f575f80fd5b506004361061003f575f3560e01c80636b29d35f14610043578063942b765a1461007357806395bbc64e14610091575b5f80fd5b61005d60048036038101906100589190610571565b6100c4565b60405161006a91906105da565b60405180910390f35b61007b6101ba565b60405161008891906107d6565b60405180910390f35b6100ab60048036038101906100a691906107f6565b610312565b6040516100bb9493929190610878565b60405180910390f35b5f805f8054905090505f6001826100db91906108ef565b90505f60405180608001604052808381526020018781526020018681526020013373ffffffffffffffffffffffffffffffffffffffff16815250908060018154018082558091505060019003905f5260205f2090600402015f909190919091505f820151815f015560208201518160010190816101589190610b1c565b50604082015181600201556060820151816003015f6101000a81548173ffffffffffffffffffffffffffffffffffffffff021916908373ffffffffffffffffffffffffffffffffffffffff16021790555050505f805490509250505092915050565b60605f80805480602002602001604051908101604052809291908181526020015f905b82821015610305578382905f5260205f2090600402016040518060800160405290815f82015481526020016001820180546102179061094f565b80601f01602080910402602001604051908101604052809291908181526020018280546102439061094f565b801561028e5780601f106102655761010080835404028352916020019161028e565b820191905f5260205f20905b81548152906001019060200180831161027157829003601f168201915b5050505050815260200160028201548152602001600382015f9054906101000a900473ffffffffffffffffffffffffffffffffffffffff1673ffffffffffffffffffffffffffffffffffffffff1673ffffffffffffffffffffffffffffffffffffffff1681525050815260200190600101906101dd565b5050505090508091505090565b5f8181548110610320575f80fd5b905f5260205f2090600402015f91509050805f0154908060010180546103459061094f565b80601f01602080910402602001604051908101604052809291908181526020018280546103719061094f565b80156103bc5780601f10610393576101008083540402835291602001916103bc565b820191905f5260205f20905b81548152906001019060200180831161039f57829003601f168201915b505050505090806002015490806003015f9054906101000a900473ffffffffffffffffffffffffffffffffffffffff16905084565b5f604051905090565b5f80fd5b5f80fd5b5f80fd5b5f80fd5b5f601f19601f8301169050919050565b7f4e487b71000000000000000000000000000000000000000000000000000000005f52604160045260245ffd5b6104508261040a565b810181811067ffffffffffffffff8211171561046f5761046e61041a565b5b80604052505050565b5f6104816103f1565b905061048d8282610447565b919050565b5f67ffffffffffffffff8211156104ac576104ab61041a565b5b6104b58261040a565b9050602081019050919050565b828183375f83830152505050565b5f6104e26104dd84610492565b610478565b9050828152602081018484840111156104fe576104fd610406565b5b6105098482856104c2565b509392505050565b5f82601f83011261052557610524610402565b5b81356105358482602086016104d0565b91505092915050565b5f819050919050565b6105508161053e565b811461055a575f80fd5b50565b5f8135905061056b81610547565b92915050565b5f8060408385031215610587576105866103fa565b5b5f83013567ffffffffffffffff8111156105a4576105a36103fe565b5b6105b085828601610511565b92505060206105c18582860161055d565b9150509250929050565b6105d48161053e565b82525050565b5f6020820190506105ed5f8301846105cb565b92915050565b5f81519050919050565b5f82825260208201905092915050565b5f819050602082019050919050565b6106258161053e565b82525050565b5f81519050919050565b5f82825260208201905092915050565b5f5b83811015610662578082015181840152602081019050610647565b5f8484015250505050565b5f6106778261062b565b6106818185610635565b9350610691818560208601610645565b61069a8161040a565b840191505092915050565b5f73ffffffffffffffffffffffffffffffffffffffff82169050919050565b5f6106ce826106a5565b9050919050565b6106de816106c4565b82525050565b5f608083015f8301516106f95f86018261061c565b5060208301518482036020860152610711828261066d565b9150506040830151610726604086018261061c565b50606083015161073960608601826106d5565b508091505092915050565b5f61074f83836106e4565b905092915050565b5f602082019050919050565b5f61076d826105f3565b61077781856105fd565b9350836020820285016107898561060d565b805f5b858110156107c457848403895281516107a58582610744565b94506107b083610757565b925060208a0199505060018101905061078c565b50829750879550505050505092915050565b5f6020820190508181035f8301526107ee8184610763565b905092915050565b5f6020828403121561080b5761080a6103fa565b5b5f6108188482850161055d565b91505092915050565b5f82825260208201905092915050565b5f61083b8261062b565b6108458185610821565b9350610855818560208601610645565b61085e8161040a565b840191505092915050565b610872816106c4565b82525050565b5f60808201905061088b5f8301876105cb565b818103602083015261089d8186610831565b90506108ac60408301856105cb565b6108b96060830184610869565b95945050505050565b7f4e487b71000000000000000000000000000000000000000000000000000000005f52601160045260245ffd5b5f6108f98261053e565b91506109048361053e565b925082820190508082111561091c5761091b6108c2565b5b92915050565b7f4e487b71000000000000000000000000000000000000000000000000000000005f52602260045260245ffd5b5f600282049050600182168061096657607f821691505b60208210810361097957610978610922565b5b50919050565b5f819050815f5260205f209050919050565b5f6020601f8301049050919050565b5f82821b905092915050565b5f600883026109db7fffffffffffffffffffffffffffffffffffffffffffffffffffffffffffffffff826109a0565b6109e586836109a0565b95508019841693508086168417925050509392505050565b5f819050919050565b5f610a20610a1b610a168461053e565b6109fd565b61053e565b9050919050565b5f819050919050565b610a3983610a06565b610a4d610a4582610a27565b8484546109ac565b825550505050565b5f90565b610a61610a55565b610a6c818484610a30565b505050565b5b81811015610a8f57610a845f82610a59565b600181019050610a72565b5050565b601f821115610ad457610aa58161097f565b610aae84610991565b81016020851015610abd578190505b610ad1610ac985610991565b830182610a71565b50505b505050565b5f82821c905092915050565b5f610af45f1984600802610ad9565b1980831691505092915050565b5f610b0c8383610ae5565b9150826002028217905092915050565b610b258261062b565b67ffffffffffffffff811115610b3e57610b3d61041a565b5b610b48825461094f565b610b53828285610a93565b5f60209050601f831160018114610b84575f8415610b72578287015190505b610b7c8582610b01565b865550610be3565b601f198416610b928661097f565b5f5b82811015610bb957848901518255600182019150602085019450602081019050610b94565b86831015610bd65784890151610bd2601f891682610ae5565b8355505b6001600288020188555050505b50505050505056fea26469706673582212201e0e0f5b2fa7c70684be2963fbecd940686091010a0bc620d52dca2409284e7064736f6c63430008150033",
  "immutableReferences": {},
  "source": "// SPDX-License-Identifier: GPL-3.0\npragma solidity >=0.4.16 <0.9.0;\n\ncontract StudentListStorage{\n    // \n    struct Student{\n        uint id;\n        string name;\n        uint age;\n        address account;\n    }\n    //\n    Student[] public StudentList;\n    //set\n    function addList(string memory _name,uint _age) public returns (uint){\n        uint count = StudentList.length;\n        uint index = count+1;\n        StudentList.push(Student(index,_name,_age,msg.sender));\n        return StudentList.length;\n    }\n    //get\n    function getList() public view returns (Student[] memory){\n        Student[] memory list = StudentList;\n        return list;\n    }\n}\n",
  "sourcePath": "/Users/jay/code/jayContraccts/contracts/StudentListStorage.sol",
  "compiler": {
    "name": "solc",
    "version": "0.8.21+commit.d9974bed.Emscripten.clang"
  },
  "schemaVersion": "3.4.16",
  "updatedAt": "2024-09-05T15:20:15.298Z",
  "networkType": "ethereum",
  "devdoc": {
    "kind": "dev",
    "methods": {},
    "version": 1
  },
  "userdoc": {
    "kind": "user",
    "methods": {},
    "version": 1
  }
}