{
  "contractName": "StudentListStorage",
  "abi": [
    {
      "inputs": [
        {
          "internalType": "uint256",
          "name": "",
          "type": "uint256"
        }
      ],
      "name": "StudentList",
      "outputs": [
        {
          "internalType": "uint256",
          "name": "id",
          "type": "uint256"
        },
        {
          "internalType": "string",
          "name": "name",
          "type": "string"
        },
        {
          "internalType": "uint256",
          "name": "age",
          "type": "uint256"
        },
        {
          "internalType": "address",
          "name": "account",
          "type": "address"
        }
      ],
      "stateMutability": "view",
      "type": "function",
      "constant": true
    },
    {
      "inputs": [
        {
          "internalType": "string",
          "name": "_name",
          "type": "string"
        },
        {
          "internalType": "uint256",
          "name": "_age",
          "type": "uint256"
        }
      ],
      "name": "addList",
      "outputs": [
        {
          "internalType": "uint256",
          "name": "",
          "type": "uint256"
        }
      ],
      "stateMutability": "nonpayable",
      "type": "function"
    },
    {
      "inputs": [],
      "name": "getList",
      "outputs": [
        {
          "components": [
            {
              "internalType": "uint256",
              "name": "id",
              "type": "uint256"
            },
            {
              "internalType": "string",
              "name": "name",
              "type": "string"
            },
            {
              "internalType": "uint256",
              "name": "age",
              "type": "uint256"
            },
            {
              "internalType": "address",
              "name": "account",
              "type": "address"
            }
          ],
          "internalType": "struct StudentListStorage.Student[]",
          "name": "",
          "type": "tuple[]"
        }
      ],
      "stateMutability": "view",
      "type": "function",
      "constant": true
    },
    {
      "inputs": [
        {
          "internalType": "uint256",
          "name": "_id",
          "type": "uint256"
        }
      ],
      "name": "delList",
      "outputs": [
        {
          "internalType": "uint256",
          "name": "",
          "type": "uint256"
        }
      ],
      "stateMutability": "nonpayable",
      "type": "function"
    }
  ],
  "bytecode": "0x608060405234801561000f575f80fd5b50610d528061001d5f395ff3fe608060405234801561000f575f80fd5b506004361061004a575f3560e01c80635061a4e51461004e5780636b29d35f1461007e578063942b765a146100ae57806395bbc64e146100cc575b5f80fd5b61006860048036038101906100639190610539565b6100ff565b6040516100759190610573565b60405180910390f35b610098600480360381019061009391906106c8565b610170565b6040516100a59190610573565b60405180910390f35b6100b6610266565b6040516100c39190610905565b60405180910390f35b6100e660048036038101906100e19190610539565b6103be565b6040516100f6949392919061097c565b60405180910390f35b5f808281548110610113576101126109c6565b5b905f5260205f2090600402015f8082015f9055600182015f610135919061049d565b600282015f9055600382015f6101000a81549073ffffffffffffffffffffffffffffffffffffffff021916905550505f805490509050919050565b5f805f8054905090505f6001826101879190610a20565b90505f60405180608001604052808381526020018781526020018681526020013373ffffffffffffffffffffffffffffffffffffffff16815250908060018154018082558091505060019003905f5260205f2090600402015f909190919091505f820151815f015560208201518160010190816102049190610c4d565b50604082015181600201556060820151816003015f6101000a81548173ffffffffffffffffffffffffffffffffffffffff021916908373ffffffffffffffffffffffffffffffffffffffff16021790555050505f805490509250505092915050565b60605f80805480602002602001604051908101604052809291908181526020015f905b828210156103b1578382905f5260205f2090600402016040518060800160405290815f82015481526020016001820180546102c390610a80565b80601f01602080910402602001604051908101604052809291908181526020018280546102ef90610a80565b801561033a5780601f106103115761010080835404028352916020019161033a565b820191905f5260205f20905b81548152906001019060200180831161031d57829003601f168201915b5050505050815260200160028201548152602001600382015f9054906101000a900473ffffffffffffffffffffffffffffffffffffffff1673ffffffffffffffffffffffffffffffffffffffff1673ffffffffffffffffffffffffffffffffffffffff168152505081526020019060010190610289565b5050505090508091505090565b5f81815481106103cc575f80fd5b905f5260205f2090600402015f91509050805f0154908060010180546103f190610a80565b80601f016020809104026020016040519081016040528092919081815260200182805461041d90610a80565b80156104685780601f1061043f57610100808354040283529160200191610468565b820191905f5260205f20905b81548152906001019060200180831161044b57829003601f168201915b505050505090806002015490806003015f9054906101000a900473ffffffffffffffffffffffffffffffffffffffff16905084565b5080546104a990610a80565b5f825580601f106104ba57506104d7565b601f0160209004905f5260205f20908101906104d691906104da565b5b50565b5b808211156104f1575f815f9055506001016104db565b5090565b5f604051905090565b5f80fd5b5f80fd5b5f819050919050565b61051881610506565b8114610522575f80fd5b50565b5f813590506105338161050f565b92915050565b5f6020828403121561054e5761054d6104fe565b5b5f61055b84828501610525565b91505092915050565b61056d81610506565b82525050565b5f6020820190506105865f830184610564565b92915050565b5f80fd5b5f80fd5b5f601f19601f8301169050919050565b7f4e487b71000000000000000000000000000000000000000000000000000000005f52604160045260245ffd5b6105da82610594565b810181811067ffffffffffffffff821117156105f9576105f86105a4565b5b80604052505050565b5f61060b6104f5565b905061061782826105d1565b919050565b5f67ffffffffffffffff821115610636576106356105a4565b5b61063f82610594565b9050602081019050919050565b828183375f83830152505050565b5f61066c6106678461061c565b610602565b90508281526020810184848401111561068857610687610590565b5b61069384828561064c565b509392505050565b5f82601f8301126106af576106ae61058c565b5b81356106bf84826020860161065a565b91505092915050565b5f80604083850312156106de576106dd6104fe565b5b5f83013567ffffffffffffffff8111156106fb576106fa610502565b5b6107078582860161069b565b925050602061071885828601610525565b9150509250929050565b5f81519050919050565b5f82825260208201905092915050565b5f819050602082019050919050565b61075481610506565b82525050565b5f81519050919050565b5f82825260208201905092915050565b5f5b83811015610791578082015181840152602081019050610776565b5f8484015250505050565b5f6107a68261075a565b6107b08185610764565b93506107c0818560208601610774565b6107c981610594565b840191505092915050565b5f73ffffffffffffffffffffffffffffffffffffffff82169050919050565b5f6107fd826107d4565b9050919050565b61080d816107f3565b82525050565b5f608083015f8301516108285f86018261074b565b5060208301518482036020860152610840828261079c565b9150506040830151610855604086018261074b565b5060608301516108686060860182610804565b508091505092915050565b5f61087e8383610813565b905092915050565b5f602082019050919050565b5f61089c82610722565b6108a6818561072c565b9350836020820285016108b88561073c565b805f5b858110156108f357848403895281516108d48582610873565b94506108df83610886565b925060208a019950506001810190506108bb565b50829750879550505050505092915050565b5f6020820190508181035f83015261091d8184610892565b905092915050565b5f82825260208201905092915050565b5f61093f8261075a565b6109498185610925565b9350610959818560208601610774565b61096281610594565b840191505092915050565b610976816107f3565b82525050565b5f60808201905061098f5f830187610564565b81810360208301526109a18186610935565b90506109b06040830185610564565b6109bd606083018461096d565b95945050505050565b7f4e487b71000000000000000000000000000000000000000000000000000000005f52603260045260245ffd5b7f4e487b71000000000000000000000000000000000000000000000000000000005f52601160045260245ffd5b5f610a2a82610506565b9150610a3583610506565b9250828201905080821115610a4d57610a4c6109f3565b5b92915050565b7f4e487b71000000000000000000000000000000000000000000000000000000005f52602260045260245ffd5b5f6002820490506001821680610a9757607f821691505b602082108103610aaa57610aa9610a53565b5b50919050565b5f819050815f5260205f209050919050565b5f6020601f8301049050919050565b5f82821b905092915050565b5f60088302610b0c7fffffffffffffffffffffffffffffffffffffffffffffffffffffffffffffffff82610ad1565b610b168683610ad1565b95508019841693508086168417925050509392505050565b5f819050919050565b5f610b51610b4c610b4784610506565b610b2e565b610506565b9050919050565b5f819050919050565b610b6a83610b37565b610b7e610b7682610b58565b848454610add565b825550505050565b5f90565b610b92610b86565b610b9d818484610b61565b505050565b5b81811015610bc057610bb55f82610b8a565b600181019050610ba3565b5050565b601f821115610c0557610bd681610ab0565b610bdf84610ac2565b81016020851015610bee578190505b610c02610bfa85610ac2565b830182610ba2565b50505b505050565b5f82821c905092915050565b5f610c255f1984600802610c0a565b1980831691505092915050565b5f610c3d8383610c16565b9150826002028217905092915050565b610c568261075a565b67ffffffffffffffff811115610c6f57610c6e6105a4565b5b610c798254610a80565b610c84828285610bc4565b5f60209050601f831160018114610cb5575f8415610ca3578287015190505b610cad8582610c32565b865550610d14565b601f198416610cc386610ab0565b5f5b82811015610cea57848901518255600182019150602085019450602081019050610cc5565b86831015610d075784890151610d03601f891682610c16565b8355505b6001600288020188555050505b50505050505056fea26469706673582212200386337d61b98fd742f56895baeb4daaed325100d8b858fdd0408b5a24d3318364736f6c63430008150033",
  "immutableReferences": {},
  "source": "// SPDX-License-Identifier: GPL-3.0\npragma solidity >=0.4.16 <0.9.0;\n\ncontract StudentListStorage{\n    // \n    struct Student{\n        uint id;\n        string name;\n        uint age;\n        address account;\n    }\n    //\n    Student[] public StudentList;\n    //set\n    function addList(string memory _name,uint _age) public returns (uint){\n        uint count = StudentList.length;\n        uint index = count+1;\n        StudentList.push(Student(index,_name,_age,msg.sender));\n        return StudentList.length;\n    }\n    //get\n    function getList() public view returns (Student[] memory){\n        Student[] memory list = StudentList;\n        return list;\n    }\n    \n    //delete\n    function delList(uint _id) public returns (uint){\n        delete StudentList[_id];\n        return StudentList.length;\n    }\n}\n",
  "sourcePath": "/Users/jay/code/jayContraccts/contracts/StudentListStorage.sol",
  "compiler": {
    "name": "solc",
    "version": "0.8.21+commit.d9974bed.Emscripten.clang"
  },
  "schemaVersion": "3.4.16",
  "updatedAt": "2024-09-06T05:37:56.416Z",
  "networkType": "ethereum",
  "devdoc": {
    "kind": "dev",
    "methods": {},
    "version": 1
  },
  "userdoc": {
    "kind": "user",
    "methods": {},
    "version": 1
  }
}