{
  "contractName": "StudentStorage",
  "abi": [
    {
      "inputs": [
        {
          "internalType": "string",
          "name": "_name",
          "type": "string"
        },
        {
          "internalType": "uint256",
          "name": "_age",
          "type": "uint256"
        }
      ],
      "name": "setData",
      "outputs": [],
      "stateMutability": "nonpayable",
      "type": "function"
    }
  ],
  "bytecode": "0x608060405234801561001057600080fd5b506101ea806100206000396000f3fe608060405234801561001057600080fd5b506004361061002b5760003560e01c8063af22068e14610030575b600080fd5b6100f36004803603604081101561004657600080fd5b810190808035906020019064010000000081111561006357600080fd5b82018360208201111561007557600080fd5b8035906020019184600183028401116401000000008311171561009757600080fd5b91908080601f016020809104026020016040519081016040528093929190818152602001838380828437600081840152601f19601f820116905080830192505050505050509192919290803590602001909291905050506100f5565b005b816001908051906020019061010b929190610117565b50806000819055505050565b828054600181600116156101000203166002900490600052602060002090601f016020900481019282601f1061015857805160ff1916838001178555610186565b82800160010185558215610186579182015b8281111561018557825182559160200191906001019061016a565b5b5090506101939190610197565b5090565b5b808211156101b0576000816000905550600101610198565b509056fea2646970667358221220c24ac94b3443bd6814d22b167a8a6694234571781d4b31cb9c21c1fabe8d253764736f6c63430007000033",
  "immutableReferences": {},
  "source": "// SPDX-License-Identifier: GPL-3.0\npragma solidity >=0.4.16 <0.9.0;\n\ncontract StudentStorage{\n    // 这两个是状态变量，存储在storage，高gas消费\n    uint age;\n    string name;\n\n    function setData(string memory _name, uint _age) public{\n        //_name,_age是形参，中转传递值，使用memory存储，低gas消费\n        name = _name;\n        age = _age;\n        \n    }\n}",
  "sourcePath": "/Users/jay/code/jayContraccts/contracts/StudentStorage.sol",
  "compiler": {
    "name": "solc",
    "version": "0.7.0+commit.9e61f92b.Emscripten.clang"
  },
  "schemaVersion": "3.4.16",
  "updatedAt": "2024-09-07T13:06:37.804Z",
  "networkType": "ethereum",
  "devdoc": {
    "kind": "dev",
    "methods": {},
    "version": 1
  },
  "userdoc": {
    "kind": "user",
    "methods": {},
    "version": 1
  }
}