{
  "contractName": "StudentListStorage",
  "abi": [
    {
      "inputs": [
        {
          "internalType": "uint256",
          "name": "",
          "type": "uint256"
        }
      ],
      "name": "StudentList",
      "outputs": [
        {
          "internalType": "uint256",
          "name": "id",
          "type": "uint256"
        },
        {
          "internalType": "string",
          "name": "name",
          "type": "string"
        },
        {
          "internalType": "uint256",
          "name": "age",
          "type": "uint256"
        },
        {
          "internalType": "address",
          "name": "account",
          "type": "address"
        }
      ],
      "stateMutability": "view",
      "type": "function",
      "constant": true
    },
    {
      "inputs": [
        {
          "internalType": "string",
          "name": "_name",
          "type": "string"
        },
        {
          "internalType": "uint256",
          "name": "_age",
          "type": "uint256"
        }
      ],
      "name": "addList",
      "outputs": [
        {
          "internalType": "uint256",
          "name": "",
          "type": "uint256"
        }
      ],
      "stateMutability": "nonpayable",
      "type": "function"
    },
    {
      "inputs": [],
      "name": "getList",
      "outputs": [
        {
          "components": [
            {
              "internalType": "uint256",
              "name": "id",
              "type": "uint256"
            },
            {
              "internalType": "string",
              "name": "name",
              "type": "string"
            },
            {
              "internalType": "uint256",
              "name": "age",
              "type": "uint256"
            },
            {
              "internalType": "address",
              "name": "account",
              "type": "address"
            }
          ],
          "internalType": "struct StudentListStorage.Student[]",
          "name": "",
          "type": "tuple[]"
        }
      ],
      "stateMutability": "view",
      "type": "function",
      "constant": true
    },
    {
      "inputs": [
        {
          "internalType": "uint256",
          "name": "_id",
          "type": "uint256"
        }
      ],
      "name": "delList",
      "outputs": [
        {
          "internalType": "uint256",
          "name": "",
          "type": "uint256"
        }
      ],
      "stateMutability": "nonpayable",
      "type": "function"
    }
  ],
  "bytecode": "0x608060405234801561001057600080fd5b50610a62806100206000396000f3fe608060405234801561001057600080fd5b506004361061004c5760003560e01c80635061a4e5146100515780636b29d35f14610081578063942b765a146100b157806395bbc64e146100cf575b600080fd5b61006b6004803603810190610066919061067b565b610102565b6040516100789190610860565b60405180910390f35b61009b60048036038101906100969190610627565b610175565b6040516100a89190610860565b60405180910390f35b6100b9610274565b6040516100c6919061083e565b60405180910390f35b6100e960048036038101906100e4919061067b565b6103e4565b6040516100f9949392919061087b565b60405180910390f35b600080828154811061011057fe5b906000526020600020906004020160008082016000905560018201600061013791906104d9565b60028201600090556003820160006101000a81549073ffffffffffffffffffffffffffffffffffffffff021916905550506000805490509050919050565b60008060008054905090506000600182019050600060405180608001604052808381526020018781526020018681526020013373ffffffffffffffffffffffffffffffffffffffff168152509080600181540180825580915050600190039060005260206000209060040201600090919091909150600082015181600001556020820151816001019080519060200190610210929190610521565b506040820151816002015560608201518160030160006101000a81548173ffffffffffffffffffffffffffffffffffffffff021916908373ffffffffffffffffffffffffffffffffffffffff16021790555050506000805490509250505092915050565b6060806000805480602002602001604051908101604052809291908181526020016000905b828210156103d7578382906000526020600020906004020160405180608001604052908160008201548152602001600182018054600181600116156101000203166002900480601f01602080910402602001604051908101604052809291908181526020018280546001816001161561010002031660029004801561035f5780601f106103345761010080835404028352916020019161035f565b820191906000526020600020905b81548152906001019060200180831161034257829003601f168201915b50505050508152602001600282015481526020016003820160009054906101000a900473ffffffffffffffffffffffffffffffffffffffff1673ffffffffffffffffffffffffffffffffffffffff1673ffffffffffffffffffffffffffffffffffffffff168152505081526020019060010190610299565b5050505090508091505090565b600081815481106103f157fe5b9060005260206000209060040201600091509050806000015490806001018054600181600116156101000203166002900480601f0160208091040260200160405190810160405280929190818152602001828054600181600116156101000203166002900480156104a35780601f10610478576101008083540402835291602001916104a3565b820191906000526020600020905b81548152906001019060200180831161048657829003601f168201915b5050505050908060020154908060030160009054906101000a900473ffffffffffffffffffffffffffffffffffffffff16905084565b50805460018160011615610100020316600290046000825580601f106104ff575061051e565b601f01602090049060005260206000209081019061051d91906105a1565b5b50565b828054600181600116156101000203166002900490600052602060002090601f016020900481019282601f1061056257805160ff1916838001178555610590565b82800160010185558215610590579182015b8281111561058f578251825591602001919060010190610574565b5b50905061059d91906105a1565b5090565b5b808211156105ba5760008160009055506001016105a2565b5090565b600082601f8301126105cf57600080fd5b81356105e26105dd826108f4565b6108c7565b915080825260208301602083018583830111156105fe57600080fd5b6106098382846109c2565b50505092915050565b60008135905061062181610a15565b92915050565b6000806040838503121561063a57600080fd5b600083013567ffffffffffffffff81111561065457600080fd5b610660858286016105be565b925050602061067185828601610612565b9150509250929050565b60006020828403121561068d57600080fd5b600061069b84828501610612565b91505092915050565b60006106b083836107bd565b905092915050565b6106c181610986565b82525050565b6106d081610986565b82525050565b60006106e182610930565b6106eb8185610953565b9350836020820285016106fd85610920565b8060005b85811015610739578484038952815161071a85826106a4565b945061072583610946565b925060208a01995050600181019050610701565b50829750879550505050505092915050565b60006107568261093b565b6107608185610964565b93506107708185602086016109d1565b61077981610a04565b840191505092915050565b600061078f8261093b565b6107998185610975565b93506107a98185602086016109d1565b6107b281610a04565b840191505092915050565b60006080830160008301516107d56000860182610820565b50602083015184820360208601526107ed828261074b565b91505060408301516108026040860182610820565b50606083015161081560608601826106b8565b508091505092915050565b610829816109b8565b82525050565b610838816109b8565b82525050565b6000602082019050818103600083015261085881846106d6565b905092915050565b6000602082019050610875600083018461082f565b92915050565b6000608082019050610890600083018761082f565b81810360208301526108a28186610784565b90506108b1604083018561082f565b6108be60608301846106c7565b95945050505050565b6000604051905081810181811067ffffffffffffffff821117156108ea57600080fd5b8060405250919050565b600067ffffffffffffffff82111561090b57600080fd5b601f19601f8301169050602081019050919050565b6000819050602082019050919050565b600081519050919050565b600081519050919050565b6000602082019050919050565b600082825260208201905092915050565b600082825260208201905092915050565b600082825260208201905092915050565b600061099182610998565b9050919050565b600073ffffffffffffffffffffffffffffffffffffffff82169050919050565b6000819050919050565b82818337600083830152505050565b60005b838110156109ef5780820151818401526020810190506109d4565b838111156109fe576000848401525b50505050565b6000601f19601f8301169050919050565b610a1e816109b8565b8114610a2957600080fd5b5056fea26469706673582212208889dad2de89aeb244ffaed9fa877729b73df98ab4b4b7b9b7e2c705806a1dad64736f6c63430007000033",
  "immutableReferences": {},
  "source": "// SPDX-License-Identifier: GPL-3.0\npragma solidity >=0.4.16 <0.9.0;\npragma experimental ABIEncoderV2;\n\ncontract StudentListStorage{\n    // 结构体\n    struct Student{\n        uint id;\n        string name;\n        uint age;\n        address account;\n    }\n    //动态数组\n    Student[] public StudentList;\n    //set变量\n    function addList(string memory _name,uint _age) public returns (uint){\n        uint count = StudentList.length;\n        uint index = count+1;\n        StudentList.push(Student(index,_name,_age,msg.sender));\n        return StudentList.length;\n    }\n    //get变量\n    function getList() public view returns (Student[] memory){\n        Student[] memory list = StudentList;\n        return list;\n    }\n    \n    //delete变量\n    function delList(uint _id) public returns (uint){\n        delete StudentList[_id];\n        return StudentList.length;\n    }\n}\n",
  "sourcePath": "/Users/jay/code/jayContraccts/contracts/StudentListStorage.sol",
  "compiler": {
    "name": "solc",
    "version": "0.7.0+commit.9e61f92b.Emscripten.clang"
  },
  "schemaVersion": "3.4.16",
  "updatedAt": "2024-09-07T13:06:37.908Z",
  "networkType": "ethereum",
  "devdoc": {
    "kind": "dev",
    "methods": {},
    "version": 1
  },
  "userdoc": {
    "kind": "user",
    "methods": {},
    "version": 1
  }
}